:02000002D0002C
:1040000000400D0004530D00000006000C000501E7
:084010000401BD0B00000000DB
:04401800C0500D0087
:10401C0009480A49884208B505D0094A824202D0AB
:10402C00121A01F005F80748074A0021121A01F08C
:10403C000DF8014808BD00BFC8E5032074520D00FF
:10404C0030E6032030E60320F0E7032070B5074E7E
:10405C00074C00F0C5FDA41BA4080025A54200D107
:10406C0070BD56F8043B98470135F7E74C520D00EC
:10407C0070520D0000F054B808B500F075F8BDE8AA
:10408C00084000F06FBD00F059BA00F05FBA00783C
:10409C00B0FA80F0400970470123037070470000AC
:1040AC0010B500F00BFF034A036811789B68BDE85C
:1040BC001040184740E6032008B500F0FFFE0368E7
:1040CC005B699847C0B2312805D10121BDE8084091
:1040DC00072000F06ABF302801D10021F6E73F2805
:1040EC0004D1082000F07AFF014B186008BD00BF16
:1040FC0040E6032010B50446006808B100F026FA2B
:10410C00204610BD0EB403B503AB012153F8042BAC
:10411C00019300F012FE02B05DF804EB03B070479F
:10412C0008B500F053FC4FF4165100F043FC00F0BE
:10413C00C5FE402100F064FB00F0C0FE084900F011
:10414C0062FB00F0BBFE074900F061FB0121072078
:10415C0000F01AFFBDE808400021082000F014BF51
:10416C00C5400D00AD400D0010B500F02FFC04460D
:10417C00082000F033FF034902462046FFF7C2FF38
:10418C0010BD00BFD4500D0010B500210A4C012009
:10419C0000F0B8F900232360A380A3710320A3F5DA
:1041AC008033A36000F0A6F92046044A0449BDE818
:1041BC00104000F026BF00BF34E6032030E6032099
:1041CC0001410D0008B5024B1B681B68019308BD2B
:1041DC004C02030008B5024B1B685B68019308BDD9
:1041EC004C02030008B5024B1B681B69019308BD08
:1041FC004C02030008B5024B1B685B69019308BDB8
:10420C004C02030008B5024B1B689B69019308BD67
:10421C004C02030008B5024B1B68DB69019308BD17
:10422C004C02030008B5024B1B681B6A019308BDC6
:10423C004C02030008B5024B1B68DB68019308BDF8
:10424C002802030008B5024B1B681B6A019308BDCA
:10425C002802030008B5024B1B685B6A019308BD7A
:10426C002802030008B5024B1B689B6A019308BD2A
:10427C002802030008B5024B1B68DB6A019308BDDA
:10428C002802030008B5024B1B681B6B019308BD89
:10429C002802030008B5024B1B685B6B019308BD39
:1042AC002802030008B5024B1B689B6B019308BDE9
:1042BC002802030008B5024B1B68DB6B019308BD99
:1042CC002802030008B5024B1B681B6C019308BD48
:1042DC002802030008B5024B1B681B68019308BD3C
:1042EC003C02030008B5024B1B68DB68019308BD58
:1042FC003C02030008B5024B1B681B69019308BD07
:10430C003C02030008B5024B1B685B69019308BDB6
:10431C003C02030008B5024B1B689B69019308BD66
:10432C003C02030008B5024B1B68DB69019308BD16
:10433C003C02030008B5024B1B681B6A019308BDC5
:10434C003C02030008B5024B1B689B6A019308BD35
:10435C003C02030008B5024B1B685B69019308BD66
:10436C006402030008B5024B1B685B6C019308BD2B
:10437C004802030008B5024B1B689B6C019308BDF7
:10438C004802030008B5024B1B685B68019308BD2B
:10439C001802030008B5024B1B685B69019308BD4A
:1043AC001802030008B5024B1B68DB69019308BDBA
:1043BC003002030008B5024B1B681B6A019308BD51
:1043CC003002030008B5024B1B689B68019308BDC3
:1043DC002C02030008B5024B1B68DB68019308BD77
:1043EC002C02030008B5024B1B681B69019308BD26
:1043FC002C02030008B5024B1B685B69019308BDD6
:10440C002C02030008B5024B1B689B68019308BD86
:10441C006802030008B5024B1B68DB68019308BDFA
:10442C006802030008B5024B1B68DB6B019308BDE7
:10443C004402030008B5024B1B685B68019308BD7E
:10444C004002030008B5024B1B689B68019308BD32
:10445C004002030008B5024B1B68DB68019308BDE2
:10446C004002030008B5024B1B681B69019308BD91
:10447C004002030008B5024B1B685B69019308BD41
:10448C004002030008B5024B1B689B69019308BDF1
:10449C004002030008B5024B1B68DB69019308BDA1
:1044AC004002030008B5024B1B681B6A019308BD50
:1044BC004002030008B5024B1B681B6B019308BD3F
:1044CC004002030008B5024B1B685B6B019308BDEF
:1044DC004002030008B5024B1B681B6C019308BD1E
:1044EC004002030008B5024B1B685B6C019308BDCE
:1044FC004002030008B5024B1B685B68019308BDC2
:10450C002002030008B5024B1B68DB6A019308BD4F
:10451C002002030008B5034B1B68D3F888300193C5
:10452C0008BD00002002030008B5034B1B68D3F83C
:10453C009430019308BD00002002030008B5024B23
:10454C001B681B68019308BD1C02030008B5024BD5
:10455C001B685B68019308BD1C02030008B5024B85
:10456C001B685B6A019308BD1C02030008B5024B73
:10457C001B685B6C019308BD1C02030000234068A0
:10458C001A46FFF757BF406800220221FFF762BFAF
:10459C00002240681146FFF755BF002240681146C3
:1045AC00FFF760BF002340681A461946FFF762BF49
:1045BC00002340681A461946FFF764BF4068002183
:1045CC00FFF788BF40680021FFF78CBF40680022CE
:1045DC0081F00101FFF75EBF40680022FFF76ABF60
:1045EC00002240681146FFF76DBF0022406811465B
:1045FC00FFF758BF2DE9F043002495B016460D4641
:10460C00074600F047FA214618220EA8009400F045
:10461C001DFD4023CDE90C3421466B460CAA3046D7
:10462C00FFF7F8FE044600284CD1024601216868C9
:10463C00FFF718FF0221804622466868FFF712FF39
:10464C00009E81462146002E3CD000293AD1736849
:10465C00022B03D00A2B11D0F669F4E7B8F1000F46
:10466C000AD0716906A8043107AD00F041FA0FCDEC
:10467C003C1D0FC42B6823704146EDE7B9F1000FC8
:10468C0001D14946E8E77469102201A800F0DEFC6C
:10469C0006238DF8143001AD04F1080318341868A2
:1046AC0059682A4603C20833A3421546F7D101A91B
:1046BC0006A807AD00F0FCF90FCD3C1D0FC42B680C
:1046CC002370DEE70098FFF79DFE384615B0BDE875
:1046DC00F0830000024B034A1A6000225A607047B4
:1046EC0044E60320E0500D0010B504460846217046
:1046FC00FFF758FE00236360204610BD002240687F
:10470C001146FFF7AFBE002240681146FFF7CABE44
:10471C00002240681146FFF7D5BE40680022FFF723
:10472C00C9BE4068002281F00101FFF7B3BE00232F
:10473C0040681A461946FFF7A5BE002340681A4682
:10474C001946FFF797BE002240681146FFF77ABE64
:10475C00406800220221FFF77DBE002340681A4604
:10476C00FFF768BE024B04225A60024A1A60704777
:10477C004CE603201C510D007047F8B50646154653
:10478C000C468F18BC4206D0336814F8011B9B688A
:10479C0030469847F6E72846F8BD007C0022FFF724
:1047AC0051BD007C0021FFF755BD007C0021FFF7B7
:1047BC0059BD007C0021FFF75DBD007C0021FFF797
:1047CC0061BD10B51421044600F020FC204610BD3C
:1047DC0010B54FF47A73044608460021C4E901135E
:1047EC00034B236020741146FFF76CFD204610BD6F
:1047FC0058510D000A46007C00230121FFF71ABD19
:10480C00C9B2FFF7F7BF007C0022FFF74BBD007C5D
:10481C000022FFF74FBD70474174704708B5007C0C
:10482C00FFF790FD20EAE07008BD08B5007CFFF7AB
:10483C0061FD20EAE07008BD08B5007CFFF76AFD59
:10484C0040EAE07008BD08B5007CFFF75BFD40EA6C
:10485C00E07008BD007CFFF765BD37B5457C0446AC
:10486C002DB1207C03B0BDE83040FFF73BBD007C90
:10487C000191FFF767FD00280199F2DC284603B08F
:10488C0030BD10B51421044600F0C0FB204610BD0D
:10489C0010B54FF0000C0446084611464FF47A72DE
:1048AC00C4E901C2044A22600122207462741A46CF
:1048BC00FFF710FD204610BD80510D0013B50E4CB6
:1048CC002178BFF35B8F11F0010112D120460191C9
:1048DC00FFF7DDFB019960B1084A094B0948FFF766
:1048EC00D7FF2046FFF7D8FB074A0849054800F0D8
:1048FC0088FB044802B010BD54E6032058E60320A0
:10490C00DCE6032060E7032030E6032023480D009B
:10491C0041747047704708B50021007CFFF772FCAA
:10492C0040EAE07008BD08B50121007CFFF76AFC85
:10493C0040EAE07008BD08B5007CFFF75BFC20EA9C
:10494C00E07008BD08B5007CFFF74CFC20EAE07075
:10495C0008BD13B50446007C0191FFF74BFC002801
:10496C00019901DC607C20B1207CFFF753FC20EA2C
:10497C00E07002B010BD007CFFF754BC10B51421E0
:10498C00044600F043FB204610BD000010B54FF468
:10499C007A73044608460021C4E90113044B2360D2
:1049AC000123207463741146FFF70CFC204610BDE4
:1049BC00B0510D00007C0022FFF70CBC10B5142286
:1049CC000446002100F042FB204610BD10B5104CEF
:1049DC0088B003A8FFF7F2FF2178BFF35B8F11F0CB
:1049EC00010111D120460191FFF751FB019958B1FA
:1049FC0003AA0848FFF7CAFF2046FFF74DFB064AFB
:104A0C000649044800F0FDFA024808B010BD00BF8A
:104A1C0074E7032078E7032030E6032021490D00DA
:104A2C00704710B51821044600F0F0FA204610BD6E
:104A3C00F0B5037D062B8DB00E4600F104074FF048
:104A4C00000412D000F1080515F8011D0A223046A9
:104A5C0000F055F9AF42044419D0002CF4D02E21AB
:104A6C00304600F03DF90444EEE72F236A46394600
:104A7C000A208DF80040FFF76DFC684600F012FB31
:104A8C0033680246DB686946304698470446204640
:104A9C000DB0F0BD10B5054B0446112240F8043B97
:104AAC00002100F0D3FA204610BD00BFE0510D00EC
:104ABC000346074A10B543F8042B01F1100251F8D4
:104ACC00044B43F8044B9142F9D10A781A7010BD8B
:104ADC00E0510D0010B59DF8084044EA032343EA69
:104AEC00024242EA016104234160037510BD0000DB
:104AFC0013B5054B0360CB7800938B784A78097813
:104B0C00FFF7E8FF02B010BDE0510D0010B583684F
:104B1C00044613B1032201469847204610BD0000FD
:104B2C00014B1860704700BFCCE5032008B50B4B58
:104B3C0043B1FFF74BFF03681B699847002801DD61
:104B4C00AFF30080064B43B1FFF7B8FE03681B6957
:104B5C009847002801DDAFF3008008BD000000007D
:104B6C000000000008B5FFF7E1FFFFF713FC014B55
:104B7C00186008BDE0E703200248034A0349121AF3
:104B8C0000F056BA00F4032004F4032070520D0018
:104B9C0007B5002300931A466FF07701FFF7C4FCAA
:104BAC0003B05DF804FB000007B543880A2B08D05E
:104BBC00502B0BD1094B1B684BB103B05DF804EBC8
:104BCC001847FFF7E5FF03B05DF804FB00230093E3
:104BDC001A466FF07701FFF7A7FCF4E790E7032084
:104BEC0038B5124C1248134D0021FFF7BFFC236857
:104BFC00AB42114B0CBF012200221A7002D0FFF7FE
:104C0C00BBFF2560FFF7BEFB044600F027FA0B4BF9
:104C1C0013B12046AFF3008000210848FFF702FCD7
:104C2C00BDE8384006480021FFF774BC00F40320AF
:104C3C002D4B0D001E1C279A8CE703200000000052
:104C4C00B54B0D0010B50446FFF760FF204610BDB4
:104C5C000348044A04490023836000F0D2B900BF22
:104C6C0094E7032030E60320514C0D00024B1A68E8
:104C7C00024B1A60704700BFC8E50320A4E703206D
:104C8C00014B024A1A607047A8E7032008520D0036
:104C9C00F8B506460D468F180024BD420CD033687B
:104CAC0015F8011B9B6830469847031E01DB1C441A
:104CBC00F3E7002C08BF1C462046F8BD13B504468C
:104CCC00084659B1019100F0EDF923680199DB68B0
:104CDC000246204602B0BDE81040184702B010BD95
:104CEC0003689B68184738B50D210546FFF7F8FF98
:104CFC000A2104462846FFF7F3FF204438BD30B59F
:104D0C008BB000238DF82430012A98BF0A2209ACFD
:104D1C000D46B1FBF2F101FB125303F0FF03092B1B
:104D2C0094BF30333733DBB2AA4204F8013DEFD9DC
:104D3C002146FFF7C3FF0BB030BD2DE9F04186B023
:104D4C0000AF05460E46381D142114463B60FFF794
:104D5C0005FC13280ED8391D2846FFF7AFFF044673
:104D6C001EB12846FFF7BFFF044420461837BD4646
:104D7C00BDE8F08100F1080323F00703E846ADEB32
:104D8C00030D2246411C3B686846FFF7E7FB69466A
:104D9C002846FFF793FF0446C546E1E710B50446E5
:104DAC00006808B1FFF7E6FA204610BD10B5064CB6
:104DBC00002320462360FFF7D5FA2046034A044916
:104DCC00BDE8104000F01DB9ACE7032030E603202D
:104DDC00A94D0D0010B5094B094C022200201A6098
:104DEC00084B2060A080A071A360FFF783FB2046D6
:104DFC00054A0649BDE8104000F003B9BCE70320A2
:104E0C00B0E703200000FFFF30E6032001410D0056
:104E1C00002240681146FFF745BB0022406811464E
:104E2C00FFF750BB40680022FFF744BB40680022EC
:104E3C0081F00101FFF72EBB002340681A4619468A
:104E4C00FFF720BB002340681A461946FFF712BB38
:104E5C00002240681146FFF705BB0022406811464E
:104E6C00FFF7F0BA406800220221FFF7F3BA0023E3
:104E7C0040681A46FFF7DEBA024B03225A60024A18
:104E8C001A607047C0E7032014520D0038B5002398
:104E9C002025438014230446038085600561064960
:104EAC00284600F0B5F804496060284600F0B0F8D8
:104EBC00E060204638BD00BF48520D0030B50F4DA4
:104ECC002978BFF35B8F11F0010487B013D128460A
:104EDC00FFF7DDF878B101A8FFF7D8FF01AA21464A
:104EEC000748FFF775FC2846FFF7D6F8054A064930
:104EFC00034800F086F8024807B030BDC8E703202D
:104F0C00CCE7032030E6032085470D00232813B59A
:104F1C0002D9002002B010BDA0F10B03022B1AD84D
:104F2C00174C2178BFF35B8F11F001010BD1204698
:104F3C000191FFF7ACF8019928B11248FFF7D4FBA7
:104F4C002046FFF7A9F80F4B1878FFF733FA002823
:104F5C00DFD10120DEE7012809D8FFF7AFFF0021E0
:104F6C00007CFFF797F980F00100C0B2D2E7093856
:104F7C000128EED8FFF7A2FC007CFFF7DBF9F2E783
:104F8C00E4E70320E8E70320232838B504460D4660
:104F9C000AD8FF2908D0FFF7B9FF28B129462046C7
:104FAC00BDE83840FFF70EBA38BD38B504460D469B
:104FBC00FFF710FAFF2810D0062804D84D2323FA47
:104FCC0000F0C30709D42046FFF7A0FF28B12946FB
:104FDC002046BDE83840FFF705BA38BD10B5044689
:104FEC00FFF7F8F9031FDBB2012B08D92046FFF7B6
:104FFC008DFF20B12046BDE81040FFF7FBB9002023
:10500C0010BD0B460146184600F004B8FFF73DB83A
:10501C00FFF739B810B5054C13462CB10A460146BA
:10502C000220AFF3008010BD2046FCE7000000001A
:10503C000A44914200F1FF3300D1704710B511F8CA
:10504C00014B03F8014F9142F9D110BD02440346C4
:10505C00934200D1704703F8011BF9E738B50D4BAB
:10506C001D68AB6B04467BB91820FFF767FA0A4A38
:10507C000A4BA863C0E90023094B83600B2383818F
:10508C0001220023C0E90423AB6B00221C615A618E
:10509C0038BD00BFCCE503200E33CDAB34126DE62A
:1050AC00ECDE0500034613F8012B002AFBD1181A7D
:1050BC00013870471D400D0059400D0081400D0016
:1050CC0085400D0000000000256400000000000079
:1050DC000000000089450D0093450D009D450D0015
:1050EC00A7450D00B1450D00BD450D00C9450D008E
:1050FC00D1450D00D9450D00E5450D00ED450D00E0
:10510C00F7450D0001460D000000000000000000F6
:10511C0067470D005D470D0053470D0009470D0013
:10512C0047470D003B470D00C9450D00D1450D000B
:10513C002F470D0027470D001D470D0013470D008D
:10514C0001460D00000000000000000085470D0026
:10515C00CF470D00A7470D0087470D00AF470D0047
:10516C00B7470D00BF470D00C7470D0000000000FA
:10517C000000000023480D008F480D0067480D000B
:10518C009D4C0D0037480D0053480D0045480D004F
:10519C0061480D0025480D0029480D000000000055
:1051AC000000000021490D0089490D005F490D00E8
:1051BC009D4C0D0051490D0023490D0033490D0044
:1051CC0083490D0043490D001D490D0000000000EE
:1051DC00000000003D4A0D002D4A0D002F4A0D0025
:1051EC0025592D256D2D25645425483A254D3A25F4
:1051FC0053257A0061736374696D6500617070008A
:10520C0000000000000000007B4E0D00714E0D00F0
:10521C00674E0D005D4E0D00514E0D00454E0D00BC
:10522C00C9450D00D1450D00394E0D00314E0D0014
:10523C00274E0D001D4E0D0001460D000000000014
:10524C0095410D00E1460D0071470D005D4C0D00C0
:10525C00794C0D008D4C0D00B94D0D00E14D0D003C
:04526C00854E0D005E
:04527000000000003A
:1052740000520D00D0E503200000000000000000F3
:10528400000000000000000000000000000000001A
:10529400000000000000000000000000000000000A
:1052A40000000000000000000000000000000000FA
:1052B40000000000000000000000000000000000EA
:1052C40000000000000000000000000000000000DA
:0852D4000000000000000000D2
:1052DC00FFFFFFFF00000102030405060708090A8F
:1052EC000B0C0D0E0F101112131415161718191A8A
:0852FC001B1C1D1E1F202800D1
:045304007856341291
:04000003D000401CCD
:00000001FF
