:02000002D0002C
:1040000000400D0074500D00000006000C0005017A
:084010000401BD0B00000000DB
:04401800204E0D0029
:10401C0009480A49884208B505D0094A824202D0AB
:10402C00121A00F0B5FE0748074A0021121A00F0D8
:10403C00BDFE014808BD00BFD8E50320E44F0D00CC
:10404C0040E6032040E60320F0E7032070B5074E5E
:10405C00074C00F015FDA41BA4080025A54200D1B7
:10406C0070BD56F8043B98470135F7E7B84F0D0083
:10407C00DC4F0D0000F01BB808B500F02BF8BDE8C4
:10408C00084000F0BFBC00F0C1B900F0C7B900781F
:10409C00B0FA80F04009704701230370704710B5E7
:1040AC000446006808B100F0B9F9204610BD08B507
:1040BC0000F0DCFB4FF4165100F0C8FB00F0D6FB0F
:1040CC0000F0C8FB0028F9D000F022FEBDE8084043
:1040DC0000F0E6BA08B500F0C9FBBDE8084001499C
:1040EC0000F05DBD344E0D0010B500210A4C0120CE
:1040FC0000F070F900232360A380A3710320A3F5C3
:10410C008033A36000F05EF92046044A0449BDE800
:10411C00104000F025BE00BF44E6032040E603201B
:10412C00AB400D0008B5024B1B681B68019308BD22
:10413C004C02030008B5024B1B685B68019308BD79
:10414C004C02030008B5024B1B681B69019308BDA8
:10415C004C02030008B5024B1B685B69019308BD58
:10416C004C02030008B5024B1B689B69019308BD08
:10417C004C02030008B5024B1B68DB69019308BDB8
:10418C004C02030008B5024B1B681B6A019308BD67
:10419C004C02030008B5024B1B689B6A019308BDD7
:1041AC004C02030008B5024B1B68DB68019308BD89
:1041BC002802030008B5024B1B681B6A019308BD5B
:1041CC002802030008B5024B1B685B6A019308BD0B
:1041DC002802030008B5024B1B689B6A019308BDBB
:1041EC002802030008B5024B1B68DB6A019308BD6B
:1041FC002802030008B5024B1B681B6B019308BD1A
:10420C002802030008B5024B1B681B6C019308BD08
:10421C002802030008B5024B1B681B68019308BDFC
:10422C003C02030008B5024B1B68DB68019308BD18
:10423C003C02030008B5024B1B681B69019308BDC7
:10424C003C02030008B5024B1B685B69019308BD77
:10425C003C02030008B5024B1B689B69019308BD27
:10426C003C02030008B5024B1B68DB69019308BDD7
:10427C003C02030008B5024B1B689B6A019308BD06
:10428C003C02030008B5024B1B685B69019308BD37
:10429C006402030008B5024B1B685B6C019308BDFC
:1042AC004802030008B5024B1B689B6C019308BDC8
:1042BC004802030008B5024B1B685B68019308BDFC
:1042CC001802030008B5024B1B685B69019308BD1B
:1042DC001802030008B5024B1B689B68019308BDCC
:1042EC006802030008B5024B1B68DB68019308BD2C
:1042FC006802030008B5024B1B68DB6B019308BD19
:10430C004402030008B5024B1B685B68019308BDAF
:10431C004002030008B5024B1B689B68019308BD63
:10432C004002030008B5024B1B68DB68019308BD13
:10433C004002030008B5024B1B681B69019308BDC2
:10434C004002030008B5024B1B685B69019308BD72
:10435C004002030008B5024B1B689B69019308BD22
:10436C004002030008B5024B1B68DB69019308BDD2
:10437C004002030008B5024B1B681B6A019308BD81
:10438C004002030008B5024B1B681B6B019308BD70
:10439C004002030008B5024B1B685B6B019308BD20
:1043AC004002030008B5024B1B681B6C019308BD4F
:1043BC004002030008B5024B1B685B6C019308BDFF
:1043CC004002030008B5024B1B685B68019308BDF3
:1043DC002002030008B5024B1B68DB6A019308BD81
:1043EC002002030008B5034B1B68D3F888300193F7
:1043FC0008BD00002002030008B5034B1B68D3F86E
:10440C009430019308BD00002002030008B5024B54
:10441C001B681B68019308BD1C02030008B5024B06
:10442C001B685B68019308BD1C02030008B5024BB6
:10443C001B685B6C019308BD1C02030000234068E1
:10444C001A46FFF75FBF406800220221FFF76ABFE0
:10445C00002240681146FFF75DBF002240681146FC
:10446C00FFF768BF002340681A461946FFF76ABF7A
:10447C00002340681A461946FFF76CBF40680021BC
:10448C00FFF790BF40680021FFF794BF40680022FF
:10449C0081F00101FFF766BF40680022FFF772BF91
:1044AC00002240681146FFF775BF00224068114694
:1044BC00FFF760BF2DE9F043002495B016460D467A
:1044CC00074600F037FA214618220EA8009400F097
:1044DC006DFC4023CDE90C3421466B460CAA3046CA
:1044EC00FFF700FF044600284CD102460121686802
:1044FC00FFF720FF0221804622466868FFF71AFF6B
:10450C00009E81462146002E3CD000293AD173688A
:10451C00022B03D00A2B11D0F669F4E7B8F1000F87
:10452C000AD0716906A8043107AD00F031FA0FCD3D
:10453C003C1D0FC42B6823704146EDE7B9F1000F09
:10454C0001D14946E8E77469102201A800F02EFC5D
:10455C0006238DF8143001AD04F1080318341868E3
:10456C0059682A4603C20833A3421546F7D101A95C
:10457C0006A807AD00F0ECF90FCD3C1D0FC42B685D
:10458C002370DEE70098FFF7A5FE384615B0BDE8AE
:10459C00F0830000024B034A1A6000225A607047F5
:1045AC0050E603204C4E0D00002240681146FFF7E8
:1045BC00C1BE002240681146FFF7DCBE00224068F5
:1045CC001146FFF7E7BE40680022FFF7DBBE4068EC
:1045DC00002281F00101FFF7C5BE002340681A4696
:1045EC001946FFF7B7BE002340681A461946FFF775
:1045FC00A9BE002240681146FFF78CBE406800221D
:10460C000221FFF78FBE002340681A46FFF77ABEDF
:10461C00024B04225A60024A1A60704758E6032083
:10462C00884E0D007047F8B5064615460C468F1897
:10463C00BC4206D0336814F8011B9B68304698477F
:10464C00F6E72846F8BD007C0022FFF7B3BD007CDE
:10465C000021FFF7B7BD007C0021FFF7BBBD007C3C
:10466C000021FFF7BFBD007C0021FFF7C3BD10B5D3
:10467C001421044600F079FB204610BD10B54FF410
:10468C007A73044608460021C4E90113034B2360E6
:10469C0020741146FFF7B6FD204610BDC44E0D0028
:1046AC000023007C1A461946FFF77CBD7047417405
:1046BC00704708B5007CFFF7DDFD20EAE07008BD0F
:1046CC0008B5007CFFF7B6FD20EAE07008BD08B520
:1046DC00007CFFF7BFFD40EAE07008BD08B5007C28
:1046EC00FFF7B0FD40EAE07008BD007CFFF7BABDF3
:1046FC0037B5457C04462DB1207C03B0BDE8304075
:10470C00FFF790BD007C0191FFF7B4FD00280199E3
:10471C00F2DC284603B030BD10B51421044600F07D
:10472C0024FB204610BD000010B54FF0000C0446D1
:10473C00084611464FF47A72C4E901C2044A226059
:10474C000122207462741A46FFF764FD204610BDE6
:10475C00EC4E0D0013B50E4C2178BFF35B8F11F0AE
:10476C00010112D120460191FFF791FC019960B132
:10477C00084A094B0948FFF7D7FF2046FFF78CFC86
:10478C00074A0849054800F0EBFA044802B010BD8E
:10479C0060E6032064E60320E8E603206CE70320D0
:1047AC0040E60320B9460D0041747047704708B5C8
:1047BC000021007CFFF7D6FC40EAE07008BD08B58C
:1047CC000121007CFFF7CEFC40EAE07008BD08B583
:1047DC00007CFFF7BFFC20EAE07008BD08B5007C48
:1047EC00FFF7B0FC20EAE07008BD13B50446007C6E
:1047FC000191FFF7AFFC0028019901DC607C20B12E
:10480C00207CFFF7B7FC20EAE07002B010BD007C02
:10481C00FFF7B8BC10B51421044600F0A6FA2046E8
:10482C0010BD000010B54FF47A7304460846002101
:10483C00C4E90113044B23600123207463741146F3
:10484C00FFF770FC204610BD1C4F0D00007C0022B1
:10485C00FFF770BC007CFFF79DBC10B5142204461A
:10486C00002100F0A3FA204610BD000010B5104C3A
:10487C0088B003A8FFF7F1FF2178BFF35B8F11F02D
:10488C00010111D120460191FFF701FC019958B1AA
:10489C0003AA0848FFF7C6FF2046FFF7FDFB064AB0
:1048AC000649044800F05CFA024808B010BD00BF8D
:1048BC0080E7032084E7032040E60320B9470D007E
:1048CC00704710B51821044600F04FFA204610BD71
:1048DC00F0B5037D062B8DB00E4600F104074FF0AA
:1048EC00000412D000F1080515F8011D0A2230460B
:1048FC0000F05FF9AF42044419D0002CF4D02E2103
:10490C00304600F03DF90444EEE72F236A46394661
:10491C000A208DF80040FFF7B5FC684600F072FAEB
:10492C0033680246DB6869463046984704462046A1
:10493C000DB0F0BD10B5054B0446112240F8043BF8
:10494C00002100F033FA204610BD00BF4C4F0D0083
:10495C000346074A10B543F8042B01F1100251F835
:10496C00044B43F8044B9142F9D10A781A7010BDEC
:10497C004C4F0D0010B59DF8084044EA032343EA60
:10498C00024242EA016104234160037510BD00003C
:10499C0013B5054B0360CB7800938B784A78097874
:1049AC00FFF7E8FF02B010BD4C4F0D0010B5836847
:1049BC00044613B1032201469847204610BD00005F
:1049CC00014B1860704700BFDCE5032008B50B4BAA
:1049DC0043B1FFF74BFF03681B699847002801DDC3
:1049EC00AFF30080064B43B1FFF7B4FE03681B69BD
:1049FC009847002801DDAFF3008008BD00000000DF
:104A0C000000000008B5FFF7E1FFFFF75BFC014B6E
:104A1C00186008BDECE703200248034A0349121A48
:104A2C0000F0B6B900F4032004F40320E04F0D00AD
:104A3C0007B5002300931A466FF07701FFF7DCFCF3
:104A4C0003B05DF804FB000007B543880A2B08D0BF
:104A5C00502B0BD1094B1B684BB103B05DF804EB29
:104A6C001847FFF7E5FF03B05DF804FB0023009344
:104A7C001A466FF07701FFF7BFFCF4E79CE70320C1
:104A8C0038B5124C1248134D0021FFF7CFFC2368A8
:104A9C00AB42114B0CBF012200221A7002D0FFF75F
:104AAC00BBFF2560FFF706FC044600F087F90B4BB3
:104ABC0013B12046AFF3008000210848FFF71AFC21
:104ACC00BDE8384006480021FFF78CBC00F40320F9
:104ADC00CD490D001E1C279A98E70320000000000A
:104AEC00554A0D0010B50446FFF760FF204610BD77
:104AFC000348044A04490023836000F031B900BF25
:104B0C00A0E7032040E60320F14A0D00024B1A688F
:104B1C00024B1A60704700BFD8E50320B0E70320B2
:104B2C00014B024A1A607047B4E70320744F0D0022
:104B3C00F8B506460D468F180024BD420CD03368DC
:104B4C0015F8011B9B6830469847031E01DB1C447B
:104B5C00F3E7002C08BF1C462046F8BD13B50446ED
:104B6C00084659B1019100F04DF923680199DB68B1
:104B7C000246204602B0BDE81040184702B010BDF6
:104B8C0003689B68184738B50D210546FFF7F8FFF9
:104B9C000A2104462846FFF7F3FF204438BD38B5F8
:104BAC000546FFF7DBFF04462846FFF7ECFF2044E1
:104BBC0038BD30B58BB000238DF82430012A98BF56
:104BCC000A2209AC0D46B1FBF2F101FB125303F0C2
:104BDC00FF03092B94BF30333733DBB2AA4204F8FE
:104BEC00013DEFD92146FFF7B9FF0BB030BD10B531
:104BFC000446006808B1FFF755FB204610BD0000C5
:104C0C0010B5064C002320462360FFF743FB2046DB
:104C1C00034A0449BDE8104000F0A2B8B8E70320ED
:104C2C0040E60320FB4B0D0010B5094B094C02224A
:104C3C0000201A60084B2060A080A071A360FFF7D1
:104C4C00C1FB2046054A0649BDE8104000F088B873
:104C5C00C8E70320BCE703200000FFFF40E6032069
:104C6C00AB400D00002240681146FFF783BB0022C9
:104C7C0040681146FFF78EBB40680022FFF782BBED
:104C8C004068002281F00101FFF76CBB00234068F3
:104C9C001A461946FFF75EBB002340681A461946B0
:104CAC00FFF750BB002240681146FFF743BB0022C0
:104CBC0040681146FFF72EBB406800220221FFF727
:104CCC0031BB002340681A46FFF71CBB024B032282
:104CDC005A60024A1A607047CCE70320804F0D00DF
:104CEC0038B50023202543801423044603808560B7
:104CFC0005610649284600F03AF8044960602846E8
:104D0C0000F035F8E060204638BD00BFB44F0D0010
:104D1C0030B50F4D2978BFF35B8F11F0010487B0CC
:104D2C0013D12846FFF7B3F978B101A8FFF7D8FFE4
:104D3C0001AA21460748FFF7A1FC2846FFF7ACF96A
:104D4C00054A0649034800F00BF8024807B030BD8D
:104D5C00D4E70320D8E7032040E6032031460D00BA
:104D6C000B460146184600F005B8FFF78EB9FFF761
:104D7C008AB9000010B5054C13462CB10A46014601
:104D8C000220AFF3008010BD2046FCE700000000BD
:104D9C000A44914200F1FF3300D1704710B511F86D
:104DAC00014B03F8014F9142F9D110BD0244034667
:104DBC00934200D1704703F8011BF9E738B50D4B4E
:104DCC001D68AB6B04467BB91820FFF71FFB0A4A22
:104DDC000A4BA863C0E90023094B83600B23838132
:104DEC0001220023C0E90423AB6B00221C615A6131
:104DFC0038BD00BFDCE503200E33CDAB34126DE6BD
:104E0C00ECDE0500034613F8012B002AFBD1181A1F
:104E1C00013870471D400D0059400D0081400D00B8
:104E2C0085400D000000000068656C6C6F20776F8A
:104E3C00726C642100000000000000000000000003
:104E4C0049440D0053440D005D440D0067440D00B2
:104E5C0071440D007D440D0089440D0091440D00FA
:104E6C0099440D00A5440D00AD440D00B7440D0050
:104E7C00C1440D00000000000000000013460D00AE
:104E8C0009460D00FF450D00B5450D00F3450D001D
:104E9C00E7450D0089440D0091440D00DB450D00E4
:104EAC00D3450D00C9450D00BF450D00C1440D0093
:104EBC00000000000000000031460D007B460D0094
:104ECC0053460D0033460D005B460D0063460D0046
:104EDC006B460D0073460D00000000000000000042
:104EEC00B9460D0025470D00FD460D003D4B0D004C
:104EFC00CD460D00E9460D00DB460D00F7460D00D2
:104F0C00BB460D00BF460D00000000000000000075
:104F1C00B9470D0021480D00F7470D003D4B0D0022
:104F2C00E9470D00BB470D00CB470D001B480D009A
:104F3C00DB470D00B5470D0000000000000000002D
:104F4C00DD480D00CD480D00CF480D0025592D250D
:104F5C006D2D25645425483A254D3A2553257A0064
:104F6C0061736374696D650061707000000000000E
:104F7C0000000000CF4C0D00C54C0D00BB4C0D00CB
:104F8C00B14C0D00A54C0D00994C0D0089440D0041
:104F9C0091440D008D4C0D00854C0D007B4C0D008B
:104FAC00714C0D00C1440D0000000000F5400D00D7
:104FBC00A1450D001D460D00FD4A0D00194B0D00BD
:104FCC002D4B0D000D4C0D00354C0D00D94C0D002A
:044FDC0000000000D1
:044FE00000000000CD
:104FE4006C4F0D00E0E5032000000000000000000D
:104FF40000000000000000000000000000000000AD
:10500400000000000000000000000000000000009C
:10501400000000000000000000000000000000008C
:10502400000000000000000000000000000000007C
:10503400000000000000000000000000000000006C
:08504400000000000000000064
:10504C00FFFFFFFF00000102030405060708090A21
:10505C000B0C0D0E0F101112131415161718191A1C
:08506C001B1C1D1E1F20280063
:045074007856341224
:04000003D000401CCD
:00000001FF
