:02000002D0002C
:1040000000400D00F4510D00000006000C000501F9
:084010000401BD0B00000000DB
:04401800A04F0D00A8
:10401C0009480A49884208B505D0094A824202D0AB
:10402C00121A00F075FF0748074A0021121A00F017
:10403C007DFF014808BD00BFD8E5032064510D0089
:10404C0040E6032040E60320F0E7032070B5074E5E
:10405C00074C00F0AFFDA41BA4080025A54200D11D
:10406C0070BD56F8043B98470135F7E73C510D00FD
:10407C0060510D0000F029B808B500F039F8BDE822
:10408C00084000F059BD00F019BA00F01FBA0078D2
:10409C00B0FA80F04009704701230370704710B5E7
:1040AC000446006808B100F011FA204610BD0EB4A9
:1040BC0003B503AB012153F8042B019300F027FE49
:1040CC0002B05DF804EB03B0704708B500F068FC73
:1040DC004FF4165100F054FC00F062FC00F054FC5C
:1040EC000028F9D000F0D4FEBDE8084000F038BB41
:1040FC0013B500F055FC03681B69984700282FD0B6
:10410C0000F04EFC03685B699847C4B200F0C0FE37
:10411C00402100F05BFB00F0BBFE036821469B686E
:10412C00984700F0B5FE00F058FB3F2C18D100F07A
:10413C00AFFE0122402100F042FB00F0A9FE036813
:10414C001B6998470028F8D000F0A2FE03685B6951
:10415C009847019000F024FC019A0249FFF7A7FF51
:10416C0002B010BDB44F0D0010B500210A4C012057
:10417C0000F088F900232360A380A3710320A3F52A
:10418C008033A36000F076F92046044A0449BDE868
:10419C00104000F0A5BE00BF44E6032040E603201B
:1041AC00AB400D0008B5024B1B681B68019308BDA2
:1041BC004C02030008B5024B1B685B68019308BDF9
:1041CC004C02030008B5024B1B681B69019308BD28
:1041DC004C02030008B5024B1B685B69019308BDD8
:1041EC004C02030008B5024B1B689B69019308BD88
:1041FC004C02030008B5024B1B68DB69019308BD38
:10420C004C02030008B5024B1B681B6A019308BDE6
:10421C004C02030008B5024B1B689B6A019308BD56
:10422C004C02030008B5024B1B68DB68019308BD08
:10423C002802030008B5024B1B689B69019308BD5B
:10424C002802030008B5024B1B68DB69019308BD0B
:10425C002802030008B5024B1B681B6A019308BDBA
:10426C002802030008B5024B1B685B6A019308BD6A
:10427C002802030008B5024B1B689B6A019308BD1A
:10428C002802030008B5024B1B68DB6A019308BDCA
:10429C002802030008B5024B1B681B6B019308BD79
:1042AC002802030008B5024B1B681B6C019308BD68
:1042BC002802030008B5024B1B681B6D019308BD57
:1042CC002802030008B5024B1B681B68019308BD4C
:1042DC003C02030008B5024B1B68DB68019308BD68
:1042EC003C02030008B5024B1B681B69019308BD17
:1042FC003C02030008B5024B1B685B69019308BDC7
:10430C003C02030008B5024B1B689B69019308BD76
:10431C003C02030008B5024B1B68DB69019308BD26
:10432C003C02030008B5024B1B689B6A019308BD55
:10433C003C02030008B5024B1B685B69019308BD86
:10434C006402030008B5024B1B685B6C019308BD4B
:10435C004802030008B5024B1B689B6C019308BD17
:10436C004802030008B5024B1B685B68019308BD4B
:10437C001802030008B5024B1B685B69019308BD6A
:10438C001802030008B5024B1B689B68019308BD1B
:10439C006802030008B5024B1B68DB68019308BD7B
:1043AC006802030008B5024B1B68DB6B019308BD68
:1043BC004402030008B5024B1B685B68019308BDFF
:1043CC004002030008B5024B1B689B68019308BDB3
:1043DC004002030008B5024B1B68DB68019308BD63
:1043EC004002030008B5024B1B681B69019308BD12
:1043FC004002030008B5024B1B685B69019308BDC2
:10440C004002030008B5024B1B689B69019308BD71
:10441C004002030008B5024B1B68DB69019308BD21
:10442C004002030008B5024B1B681B6A019308BDD0
:10443C004002030008B5024B1B681B6B019308BDBF
:10444C004002030008B5024B1B685B6B019308BD6F
:10445C004002030008B5024B1B681B6C019308BD9E
:10446C004002030008B5024B1B685B6C019308BD4E
:10447C004002030008B5024B1B685B68019308BD42
:10448C002002030008B5024B1B68DB6A019308BDD0
:10449C002002030008B5034B1B68D3F88830019346
:1044AC0008BD00002002030008B5034B1B68D3F8BD
:1044BC009430019308BD00002002030008B5024BA4
:1044CC001B681B68019308BD1C02030008B5024B56
:1044DC001B685B68019308BD1C02030008B5024B06
:1044EC001B685B6A019308BD1C02030008B5024BF4
:1044FC001B685B6C019308BD1C0203000023406821
:10450C001A46FFF757BF406800220221FFF762BF2F
:10451C00002240681146FFF755BF00224068114643
:10452C00FFF760BF002340681A461946FFF762BFC9
:10453C00002340681A461946FFF764BF4068002103
:10454C00FFF788BF40680021FFF78CBF406800224E
:10455C0081F00101FFF75EBF40680022FFF76ABFE0
:10456C00002240681146FFF76DBF002240681146DB
:10457C00FFF758BF2DE9F043002495B016460D46C1
:10458C00074600F071FA214618220EA8009400F09C
:10459C00CDFC4023CDE90C3421466B460CAA3046A9
:1045AC00FFF7F8FE044600284CD10246012168684A
:1045BC00FFF718FF0221804622466868FFF712FFBA
:1045CC00009E81462146002E3CD000293AD17368CA
:1045DC00022B03D00A2B11D0F669F4E7B8F1000FC7
:1045EC000AD0716906A8043107AD00F06BFA0FCD43
:1045FC003C1D0FC42B6823704146EDE7B9F1000F49
:10460C0001D14946E8E77469102201A800F08EFC3C
:10461C0006238DF8143001AD04F108031834186822
:10462C0059682A4603C20833A3421546F7D101A99B
:10463C0006A807AD00F026FA0FCD3C1D0FC42B6861
:10464C002370DEE70098FFF79DFE384615B0BDE8F5
:10465C00F0830000024B034A1A6000225A60704734
:10466C0050E60320D04F0D00002240681146FFF7A2
:10467C00B9BE002240681146FFF7D4BE0022406844
:10468C001146FFF7DFBE40680022FFF7D3BE40683B
:10469C00002281F00101FFF7BDBE002340681A46DD
:1046AC001946FFF7AFBE002340681A461946FFF7BC
:1046BC00A1BE002240681146FFF784BE406800226C
:1046CC000221FFF787BE002340681A46FFF772BE2F
:1046DC00024B04225A60024A1A60704758E60320C3
:1046EC000C500D007047F8B5064615460C468F1851
:1046FC00BC4206D0336814F8011B9B6830469847BF
:10470C00F6E72846F8BD007C0022FFF7A3BD007C2D
:10471C000021FFF7A7BD007C0021FFF7ABBD007C9B
:10472C000021FFF7AFBD007C0021FFF7B3BD10B532
:10473C001421044600F0D9FB204610BD10B54FF4EF
:10474C007A73044608460021C4E90113034B236025
:10475C0020741146FFF7A6FD204610BD48500D00F1
:10476C000023007C1A461946FFF75CBD7FB500227A
:10477C001423CDE90122ADF804300B788DF8083004
:10478C004B680393CB680493007C0B7A059301A9C7
:10479C00FFF790FD07B05DF804FB1FB5003B8DF8EB
:1047AC0000104FF06401039118BF01236946019278
:1047BC008DF80830FFF7DAFF05B05DF804FB012334
:1047CC00FFF7EBBF007C0022FFF734BDC9B2FFF747
:1047DC00F9BF007C0022FFF735BD0121FFF7F9BFBF
:1047EC0070474174704708B5007CFFF79BFD20EAC9
:1047FC00E07008BD08B5007CFFF774FD20EAE0709E
:10480C0008BD08B5007CFFF77DFD40EAE07008BDEF
:10481C0008B5007CFFF76EFD40EAE07008BD007C37
:10482C00FFF778BD37B5457C04462DB1207C03B02D
:10483C00BDE83040FFF74EBD007C0191FFF772FDE3
:10484C0000280199F2DC284603B030BD10B51421C4
:10485C00044600F04AFB204610BD000010B54FF096
:10486C00000C0446084611464FF47A72C4E901C2A2
:10487C00044A22600122207462741A46FFF722FD5A
:10488C00204610BD70500D0013B50E4C2178BFF3AF
:10489C005B8F11F0010112D120460191FFF7F7FB5C
:1048AC00019960B1084A094B0948FFF7D7FF204628
:1048BC00FFF7F2FB074A0849054800F011FB0448D2
:1048CC0002B010BD60E6032064E60320E8E6032096
:1048DC006CE7032040E60320ED470D004174704760
:1048EC00704708B50021007CFFF77CFC40EAE070C3
:1048FC0008BD08B50121007CFFF774FC40EAE070AC
:10490C0008BD08B5007CFFF765FC20EAE07008BD27
:10491C0008B5007CFFF756FC20EAE07008BD13B523
:10492C000446007C0191FFF755FC0028019901DC3D
:10493C00607C20B1207CFFF75DFC20EAE07002B0C7
:10494C0010BD007CFFF75EBC10B51421044600F0CE
:10495C00CCFA204610BD000010B54FF47A73044613
:10496C0008460021C4E90113044B23600123207481
:10497C0063741146FFF716FC204610BDA0500D00C5
:10498C00007C0022FFF716BC007CFFF743BC10B57F
:10499C0014220446002100F0C9FA204610BD000084
:1049AC0010B5104C88B003A8FFF7F1FF2178BFF3C6
:1049BC005B8F11F0010111D120460191FFF767FBCC
:1049CC00019958B103AA0848FFF7C6FF2046FFF724
:1049DC0063FB064A0649044800F082FA024808B014
:1049EC0010BD00BF80E7032084E7032040E60320CE
:1049FC00ED480D00704710B51821044600F075FA0B
:104A0C00204610BDF0B5037D062B8DB00E4600F18F
:104A1C0004074FF0000412D000F1080515F8011D31
:104A2C000A22304600F055F9AF42044419D0002C4C
:104A3C00F4D02E21304600F03DF90444EEE72F234C
:104A4C006A4639460A208DF80040FFF773FC684629
:104A5C0000F098FA33680246DB686946304698479E
:104A6C00044620460DB0F0BD10B5054B044611228E
:104A7C0040F8043B002100F059FA204610BD00BF5D
:104A8C00D0500D000346074A10B543F8042B01F132
:104A9C00100251F8044B43F8044B9142F9D10A78B7
:104AAC001A7010BDD0500D0010B59DF8084044EAA6
:104ABC00032343EA024242EA016104234160037585
:104ACC0010BD000013B5054B0360CB7800938B78B9
:104ADC004A780978FFF7E8FF02B010BDD0500D00FE
:104AEC0010B58368044613B103220146984720464B
:104AFC0010BD0000014B1860704700BFDCE50320BF
:104B0C0008B50B4B43B1FFF74BFF03681B69984784
:104B1C00002801DDAFF30080064B43B1FFF7B4FE74
:104B2C0003681B699847002801DDAFF3008008BDBE
:104B3C00000000000000000008B5FFF7E1FFFFF7E0
:104B4C0019FC014B186008BDECE703200248034A2E
:104B5C000349121A00F0DCB900F4032004F403201A
:104B6C0060510D0007B5002300931A466FF07701D2
:104B7C00FFF79AFC03B05DF804FB000007B543880F
:104B8C000A2B08D0502B0BD1094B1B684BB103B02F
:104B9C005DF804EB1847FFF7E5FF03B05DF804FB85
:104BAC00002300931A466FF07701FFF77DFCF4E7C2
:104BBC009CE7032038B5124C1248134D0021FFF727
:104BCC0095FC2368AB42114B0CBF012200221A70DA
:104BDC0002D0FFF7BBFF2560FFF7C4FB044600F0D3
:104BEC00ADF90B4B13B12046AFF300800021084800
:104BFC00FFF7D8FBBDE8384006480021FFF74ABC58
:104C0C0000F40320014B0D001E1C279A98E703208B
:104C1C0000000000894B0D0010B50446FFF760FF43
:104C2C00204610BD0348044A04490023836000F069
:104C3C0057B900BFA0E7032040E60320254C0D0028
:104C4C00024B1A68024B1A60704700BFD8E503206C
:104C5C00B0E70320014B024A1A607047B4E7032007
:104C6C00F8500D00F8B506460D468F180024BD42CD
:104C7C000CD0336815F8011B9B6830469847031E0F
:104C8C0001DB1C44F3E7002C08BF1C462046F8BD92
:104C9C0013B50446084659B1019100F073F9236825
:104CAC000199DB680246204602B0BDE81040184767
:104CBC0002B010BD03689B68184738B50D21054636
:104CCC00FFF7F8FF0A2104462846FFF7F3FF2044BC
:104CDC0038BD30B58BB000238DF82430012A98BF35
:104CEC000A2209AC0D46B1FBF2F101FB125303F0A1
:104CFC00FF03092B94BF30333733DBB2AA4204F8DD
:104D0C00013DEFD92146FFF7C3FF0BB030BD2DE9B4
:104D1C00F04186B000AF05460E46381D14211446EE
:104D2C003B60FFF7DBFB13280ED8391D2846FFF735
:104D3C00AFFF04461EB12846FFF7BFFF04442046D0
:104D4C001837BD46BDE8F08100F1080323F00703D6
:104D5C00E846ADEB030D2246411C3B686846FFF765
:104D6C00BDFB69462846FFF793FF0446C546E1E7BD
:104D7C0010B50446006808B1FFF7ECFA204610BDE8
:104D8C0010B5064C002320462360FFF7DBFA2046C3
:104D9C00034A0449BDE8104000F0A2B8B8E703206C
:104DAC0040E603207D4D0D0010B5094B094C022245
:104DBC0000201A60084B2060A080A071A360FFF750
:104DCC0059FB2046054A0649BDE8104000F088B85A
:104DDC00C8E70320BCE703200000FFFF40E60320E8
:104DEC00AB400D00002240681146FFF71BBB0022B0
:104DFC0040681146FFF726BB40680022FFF71ABB3C
:104E0C004068002281F00101FFF704BB00234068D9
:104E1C001A461946FFF7F6BA002340681A46194697
:104E2C00FFF7E8BA002240681146FFF7DBBA002210
:104E3C0040681146FFF7C6BA406800220221FFF70E
:104E4C00C9BA002340681A46FFF7B4BA024B0322D2
:104E5C005A60024A1A607047CCE7032004510D00D7
:104E6C0038B5002320254380142304460380856035
:104E7C0005610649284600F03AF804496060284666
:104E8C0000F035F8E060204638BD00BF38510D0009
:104E9C0030B50F4D2978BFF35B8F11F0010487B04B
:104EAC0013D12846FFF7F3F878B101A8FFF7D8FF24
:104EBC0001AA21460748FFF741FC2846FFF7ECF80A
:104ECC00054A0649034800F00BF8024807B030BD0C
:104EDC00D4E70320D8E7032040E60320F1460D0079
:104EEC000B460146184600F005B8FFF7CEB8FFF7A1
:104EFC00CAB8000010B5054C13462CB10A46014641
:104F0C000220AFF3008010BD2046FCE7000000003B
:104F1C000A44914200F1FF3300D1704710B511F8EB
:104F2C00014B03F8014F9142F9D110BD02440346E5
:104F3C00934200D1704703F8011BF9E738B50D4BCC
:104F4C001D68AB6B04467BB91820FFF7B7FA0A4A09
:104F5C000A4BA863C0E90023094B83600B238381B0
:104F6C0001220023C0E90423AB6B00221C615A61AF
:104F7C0038BD00BFDCE503200E33CDAB34126DE63B
:104F8C00ECDE0500034613F8012B002AFBD1181A9E
:104F9C00013870471D400D0059400D0081400D0037
:104FAC0085400D0000000000427574746F6E20691E
:104FBC006E7075743A20256400000000000000003B
:104FCC000000000009450D0013450D001D450D00A6
:104FDC0027450D0031450D003D450D0049450D009F
:104FEC0051450D0059450D0065450D006D450D00F1
:104FFC0077450D0081450D00000000000000000009
:10500C00D3460D00C9460D00BF460D0075460D0078
:10501C00B3460D00A7460D0049450D0051450D0046
:10502C009B460D0093460D0089460D007F460D00F2
:10503C0081450D000000000000000000F1460D004D
:10504C003B470D0013470D00F3460D001B470D00A9
:10505C0023470D002B470D0033470D0000000000C7
:10506C0000000000ED470D0059480D0031480D00BF
:10507C00714C0D0001480D001D480D000F480D002E
:10508C002B480D00EF470D00F3470D00000000000A
:10509C0000000000ED480D0055490D002B490D0096
:1050AC00714C0D001D490D00EF480D00FF480D001F
:1050BC004F490D000F490D00E9480D00000000009C
:1050CC0000000000114A0D00014A0D00034A0D00BA
:1050DC0025592D256D2D25645425483A254D3A2505
:1050EC0053257A0061736374696D6500617070009B
:1050FC0000000000000000004F4E0D00454E0D005A
:10510C003B4E0D00314E0D00254E0D00194E0D007D
:10511C0049450D0051450D000D4E0D00054E0D007D
:10512C00FB4D0D00F14D0D0081450D000000000000
:10513C0075410D0061460D00DD460D00314C0D0032
:10514C004D4C0D00614C0D008D4D0D00B54D0D00FD
:04515C00594E0D009B
:04516000000000004B
:10516400F0500D00E0E50320000000000000000006
:10517400000000000000000000000000000000002B
:10518400000000000000000000000000000000001B
:10519400000000000000000000000000000000000B
:1051A40000000000000000000000000000000000FB
:1051B40000000000000000000000000000000000EB
:0851C4000000000000000000E3
:1051CC00FFFFFFFF00000102030405060708090AA0
:1051DC000B0C0D0E0F101112131415161718191A9B
:0851EC001B1C1D1E1F202800E2
:0451F40078563412A3
:04000003D000401CCD
:00000001FF
