:02000002D0002C
:1040000000400D00A44E0D00000006000C0005014C
:084010000401BD0B00000000DB
:04401800744C0D00D7
:10401C0009480A49884208B505D0094A824202D0AB
:10402C00121A00F0DFFD0748074A0021121A00F0AF
:10403C00E7FD014808BD00BFF0E50320144E0D005C
:10404C0058E6032058E60320F0E7032070B5074E2E
:10405C00074C00F081FCA41BA4080025A54200D14C
:10406C0070BD56F8043B98470135F7E7E04D0D005D
:10407C00044E0D0000F019B808B500F01FF8BDE8AB
:10408C00084000F02BBC00F07DB90078B0FA80F04D
:10409C004009704701230370704710B5044600684F
:1040AC0008B100F06FF9204610BD08B500F04AFBCE
:1040BC00BDE808404FF4165100F038BB08B500F0CD
:1040CC0041FBBDE80840014900F0D5BC884C0D000F
:1040DC0010B500210A4C012000F030F900232360B8
:1040EC00A380A3710320A3F58033A36000F01EF915
:1040FC002046044A0449BDE8104000F05DBD00BFF5
:10410C005CE6032058E60320A7400D0008B5024BDF
:10411C001B681B68019308BD4C02030008B5024BD9
:10412C001B685B68019308BD4C02030008B5024B89
:10413C001B681B69019308BD4C02030008B5024BB8
:10414C001B685B69019308BD4C02030008B5024B68
:10415C001B689B69019308BD4C02030008B5024B18
:10416C001B68DB69019308BD4C02030008B5024BC8
:10417C001B681B6A019308BD4C02030008B5024B77
:10418C001B681B68019308BD3C02030008B5024B79
:10419C001B68DB68019308BD3C02030008B5024BA9
:1041AC001B681B69019308BD3C02030008B5024B58
:1041BC001B685B69019308BD3C02030008B5024B08
:1041CC001B689B69019308BD3C02030008B5024BB8
:1041DC001B68DB69019308BD3C02030008B5024B68
:1041EC001B689B6A019308BD3C02030008B5024B97
:1041FC001B685B69019308BD6402030008B5024BA0
:10420C001B685B6C019308BD4802030008B5024BA8
:10421C001B689B6C019308BD4802030008B5024B58
:10422C001B685B68019308BD1802030008B5024BBC
:10423C001B685B69019308BD1802030008B5024BAB
:10424C001B689B68019308BD6802030008B5024B0C
:10425C001B68DB68019308BD6802030008B5024BBC
:10426C001B68DB6B019308BD4402030008B5024BCD
:10427C001B685B68019308BD4002030008B5024B44
:10428C001B689B68019308BD4002030008B5024BF4
:10429C001B68DB68019308BD4002030008B5024BA4
:1042AC001B681B69019308BD4002030008B5024B53
:1042BC001B685B69019308BD4002030008B5024B03
:1042CC001B689B69019308BD4002030008B5024BB3
:1042DC001B68DB69019308BD4002030008B5024B63
:1042EC001B681B6A019308BD4002030008B5024B12
:1042FC001B681B6B019308BD4002030008B5024B01
:10430C001B685B6B019308BD4002030008B5024BB0
:10431C001B681B6C019308BD4002030008B5024BDF
:10432C001B685B6C019308BD4002030008B5024B8F
:10433C001B685B68019308BD2002030008B5024BA3
:10434C001B68DB6A019308BD2002030008B5034B10
:10435C001B68D3F88830019308BD000020020300CD
:10436C0008B5034B1B68D3F89430019308BD0000CB
:10437C002002030008B5024B1B681B68019308BDA3
:10438C001C02030008B5024B1B685B68019308BD57
:10439C001C02030008B5024B1B685B6C019308BD43
:1043AC001C020300002340681A46FFF75FBF4068F9
:1043BC0000220221FFF76ABF002240681146FFF776
:1043CC005DBF002240681146FFF768BF00234068BC
:1043DC001A461946FFF76ABF002340681A46194669
:1043EC00FFF76CBF40680021FFF790BF40680021C9
:1043FC00FFF794BF4068002281F00101FFF766BF10
:10440C0040680022FFF772BF002240681146FFF798
:10441C0075BF002240681146FFF760BF2DE9F043DD
:10442C00002495B016460D46074600F0EFF92146DC
:10443C0018220EA8009400F0E3FB4023CDE90C34C5
:10444C0021466B460CAA3046FFF700FF04460028B5
:10445C004CD1024601216868FFF720FF02218046FB
:10446C0022466868FFF71AFF009E81462146002EFF
:10447C003CD000293AD17368022B03D00A2B11D0FF
:10448C00F669F4E7B8F1000F0AD0716906A8043197
:10449C0007AD00F0E9F90FCD3C1D0FC42B6823705C
:1044AC004146EDE7B9F1000F01D14946E8E77469DF
:1044BC00102201A800F0A4FB06238DF8143001ADE6
:1044CC0004F108031834186859682A4603C20833E3
:1044DC00A3421546F7D101A906A807AD00F0A4F92F
:1044EC000FCD3C1D0FC42B682370DEE70098FFF73F
:1044FC00A5FE384615B0BDE8F0830000024B034A18
:10450C001A6000225A60704768E60320A04C0D0028
:10451C00002240681146FFF7C1BE002240681146D8
:10452C00FFF7DCBE002240681146FFF7E7BE40688B
:10453C000022FFF7DBBE4068002281F00101FFF78B
:10454C00C5BE002340681A461946FFF7B7BE0023C4
:10455C0040681A461946FFF7A9BE0022406811466A
:10456C00FFF78CBE406800220221FFF78FBE0023AC
:10457C0040681A46FFF77ABE024B04225A60024A80
:10458C001A60704770E60320DC4C0D0070474174D4
:10459C00704708B5007CFFF721FE20EAE07008BDEB
:1045AC0008B5007CFFF7FAFD20EAE07008BD08B5FD
:1045BC00007CFFF703FE40EAE07008BD08B5007C04
:1045CC00FFF7F4FD40EAE07008BD007CFFF7FEBD8C
:1045DC0037B5457C04462DB1207C03B0BDE8304096
:1045EC00FFF7D4BD007C0191FFF7F8FD002801997D
:1045FC00F2DC284603B030BD10B51421044600F09F
:10460C00E0FA204610BD000010B54FF0000C044637
:10461C00084611464FF47A72C4E901C2044A22607A
:10462C000122207462741A46FFF7A8FD204610BDC3
:10463C00184D0D0013B50E4C2178BFF35B8F11F0A4
:10464C00010112D120460191FFF71FFD019960B1C4
:10465C00084A094B0948FFF7D7FF2046FFF71AFD18
:10466C00074A0849054800F0A7FA044802B010BDF3
:10467C0078E603207CE6032000E7032084E7032090
:10468C0058E6032099450D0041747047704708B5F2
:10469C000021007CFFF75AFD40EAE07008BD08B528
:1046AC000121007CFFF752FD40EAE07008BD08B51F
:1046BC00007CFFF743FD20EAE07008BD08B5007CE4
:1046CC00FFF734FD20EAE07008BD13B50446007C0A
:1046DC000191FFF733FD0028019901DC607C20B1CA
:1046EC00207CFFF73BFD20EAE07002B010BD007C9F
:1046FC00FFF73CBD10B51421044600F062FA2046C9
:10470C0010BD000010B54FF47A7304460846002122
:10471C00C4E90113044B2360012320746374114614
:10472C00FFF7F4FC204610BD484D0D00007C002224
:10473C00FFF7F4BC10B514220446002100F060FA17
:10474C00204610BD10B5104C88B003A8FFF7F2FF3F
:10475C002178BFF35B8F11F0010111D1204601913B
:10476C00FFF793FC019958B103AA0848FFF7CAFF59
:10477C002046FFF78FFC064A0649044800F01CFA55
:10478C00024808B010BD00BF98E703209CE7032047
:10479C0058E6032099460D00704710B518210446C1
:1047AC0000F00FFA204610BDF0B5037D062B8DB03E
:1047BC000E4600F104074FF0000412D000F108057A
:1047CC0015F8011D0A22304600F05FF9AF4204448F
:1047DC0019D0002CF4D02E21304600F03DF90444C1
:1047EC00EEE72F236A4639460A208DF80040FFF782
:1047FC00FDFC684600F030FA33680246DB68694617
:10480C0030469847044620460DB0F0BD10B5054B18
:10481C000446112240F8043B002100F0F1F9204637
:10482C0010BD00BF784D0D000346074A10B543F884
:10483C00042B01F1100251F8044B43F8044B914244
:10484C00F9D10A781A7010BD784D0D0010B59DF88D
:10485C00084044EA032343EA024242EA016104238A
:10486C004160037510BD000013B5054B0360CB7898
:10487C0000938B784A780978FFF7E8FF02B010BDF7
:10488C00784D0D0010B58368044613B10322014620
:10489C009847204610BD0000014B1860704700BFC0
:1048AC00F4E5032008B50B4B43B1FFF74BFF03684E
:1048BC001B699847002801DDAFF30080064B43B11C
:1048CC00FFF7B8FE03681B699847002801DDAFF3BA
:1048DC00008008BD000000000000000008B5FFF7D4
:1048EC00E1FFFFF7A3FC014B186008BDECE70320C8
:1048FC000248034A0349121A00F074B900F4032069
:10490C0004F40320104E0D0007B5002300931A4643
:10491C006FF07701FFF724FD03B05DF804FB000096
:10492C0007B543880A2B08D0502B0BD1094B1B68B9
:10493C004BB103B05DF804EB1847FFF7E5FF03B08C
:10494C005DF804FB002300931A466FF07701FFF724
:10495C0007FDF4E7B4E7032038B5124C1248134DA9
:10496C000021FFF717FD2368AB42114B0CBF01224E
:10497C0000221A7002D0FFF7BBFF2560FFF74EFC38
:10498C00044600F045F90B4B13B12046AFF3008001
:10499C0000210848FFF762FCBDE8384006480021BA
:1049AC00FFF7D4BC00F40320A5480D001E1C279A69
:1049BC00B0E70320000000002D490D0010B504469F
:1049CC00FFF760FF204610BD0348044A044900234A
:1049DC00836000F0F1B800BFB8E7032058E603206D
:1049EC00C9490D00024B1A68024B1A60704700BF90
:1049FC00F0E50320C8E70320014B024A1A60704718
:104A0C00CCE70320A04D0D00F8B506460D468F18D7
:104A1C000024BD420CD0336815F8011B9B6830464E
:104A2C009847031E01DB1C44F3E7002C08BF1C460F
:104A3C002046F8BD13B50446084659B1019100F063
:104A4C000BF923680199DB680246204602B0BDE8E9
:104A5C001040184702B010BD03689B68184738B562
:104A6C000D210546FFF7F8FF0A2104462846FFF7FB
:104A7C00F3FF204438BD38B50546FFF7DBFF04468D
:104A8C002846FFF7ECFF204438BD30B58BB000232F
:104A9C008DF82430012A98BF0A2209AC0D46B1FBCF
:104AAC00F2F101FB125303F0FF03092B94BF3033D7
:104ABC003733DBB2AA4204F8013DEFD92146FFF7A8
:104ACC00B9FF0BB030BD10B50446006808B1FFF754
:104ADC009DFB204610BD000010B5064C002320465F
:104AEC002360FFF78BFB2046034A0449BDE81040C6
:104AFC0000F062B8D0E7032058E60320D34A0D003B
:104B0C0010B5094B094C022200201A60084B20609A
:104B1C00A080A071A360FFF709FC2046054A064956
:104B2C00BDE8104000F048B8E0E70320D4E70320CC
:104B3C000000FFFF58E60320A7400D00002240684C
:104B4C001146FFF7CBBB002240681146FFF7D6BBDE
:104B5C0040680022FFF7CABB4068002281F00101C7
:104B6C00FFF7B4BB002340681A461946FFF7A6BBF3
:104B7C00002340681A461946FFF798BB002240688C
:104B8C001146FFF78BBB002240681146FFF776BB3E
:104B9C00406800220221FFF779BB002340681A46C7
:104BAC00FFF764BB024B03225A60024A1A6070473B
:104BBC00E4E70320AC4D0D000B460146184600F00F
:104BCC0003B8FFF760BA000010B5054C13462CB1C2
:104BDC000A4601460220AFF3008010BD2046FCE7D8
:104BEC00000000000A44914200F1FF3300D17047ED
:104BFC0010B511F8014B03F8014F9142F9D110BDDA
:104C0C0002440346934200D1704703F8011BF9E7B5
:104C1C0038B50D4B1D68AB6B04467BB91820FFF7FC
:104C2C00A9FB0A4A0A4BA863C0E90023094B83601D
:104C3C000B23838101220023C0E90423AB6B0022E8
:104C4C001C615A6138BD00BFF4E503200E33CDABB7
:104C5C0034126DE6ECDE0500034613F8012B002A36
:104C6C00FBD1181A013870471D400D0059400D003A
:104C7C0081400D0085400D000000000068656C6CE3
:104C8C006F20776F726C6421000000000000000040
:104C9C0000000000B1430D00BB430D00C5430D00E7
:104CAC00CF430D00D9430D00E5430D00F1430D003A
:104CBC00F9430D0001440D000D440D0015440D0089
:104CCC001F440D0029440D000000000000000000EE
:104CDC007B450D0071450D0067450D001D450D0010
:104CEC005B450D004F450D00F1430D00F9430D00E0
:104CFC0043450D003B450D0031450D0027450D008A
:104D0C0029440D00000000000000000099450D0032
:104D1C0005460D00DD450D00154A0D00AD450D0095
:104D2C00C9450D00BB450D00D7450D009B450D0039
:104D3C009F450D00000000000000000099460D008A
:104D4C0001470D00D7460D00154A0D00C9460D0050
:104D5C009B460D00AB460D00FB460D00BB460D00FF
:104D6C0095460D000000000000000000B5470D0046
:104D7C00A5470D00A7470D0025592D256D2D256440
:104D8C005425483A254D3A2553257A0061736374AE
:104D9C00696D65006170700000000000000000008B
:104DAC00A74B0D009D4B0D00934B0D00894B0D0037
:104DBC007D4B0D00714B0D00F1430D00F9430D00BF
:104DCC00654B0D005D4B0D00534B0D00494B0D0019
:104DDC0029440D00DD400D0009450D0085450D00F1
:104DEC00D5490D00F1490D00054A0D00E54A0D00AD
:104DFC000D4B0D00B14B0D00000000000000000039
:044E0C0000000000A2
:044E1000000000009E
:104E1400984D0D00F8E5032000000000000000009C
:104E2400000000000000000000000000000000007E
:104E3400000000000000000000000000000000006E
:104E4400000000000000000000000000000000005E
:104E5400000000000000000000000000000000004E
:104E6400000000000000000000000000000000003E
:084E7400000000000000000036
:104E7C00FFFFFFFF00000102030405060708090AF3
:104E8C000B0C0D0E0F101112131415161718191AEE
:084E9C001B1C1D1E1F20280035
:044EA40078563412F6
:04000003D000401CCD
:00000001FF
